{
  "contractName": "FlightSuretyApp",
  "abi": [
    {
      "constant": true,
      "inputs": [],
      "name": "REGISTRATION_FEE",
      "outputs": [
        {
          "name": "",
          "type": "uint256"
        }
      ],
      "payable": false,
      "stateMutability": "view",
      "type": "function",
      "signature": "0x64b4f751"
    },
    {
      "constant": false,
      "inputs": [],
      "name": "renounceOwnership",
      "outputs": [],
      "payable": false,
      "stateMutability": "nonpayable",
      "type": "function",
      "signature": "0x715018a6"
    },
    {
      "constant": true,
      "inputs": [],
      "name": "owner",
      "outputs": [
        {
          "name": "",
          "type": "address"
        }
      ],
      "payable": false,
      "stateMutability": "view",
      "type": "function",
      "signature": "0x8da5cb5b"
    },
    {
      "constant": true,
      "inputs": [],
      "name": "isOwner",
      "outputs": [
        {
          "name": "",
          "type": "bool"
        }
      ],
      "payable": false,
      "stateMutability": "view",
      "type": "function",
      "signature": "0x8f32d59b"
    },
    {
      "constant": false,
      "inputs": [
        {
          "name": "newOwner",
          "type": "address"
        }
      ],
      "name": "transferOwnership",
      "outputs": [],
      "payable": false,
      "stateMutability": "nonpayable",
      "type": "function",
      "signature": "0xf2fde38b"
    },
    {
      "inputs": [
        {
          "name": "flightSuretyDataContract",
          "type": "address"
        }
      ],
      "payable": false,
      "stateMutability": "nonpayable",
      "type": "constructor",
      "signature": "constructor"
    },
    {
      "anonymous": false,
      "inputs": [
        {
          "indexed": false,
          "name": "airlineAdress",
          "type": "address"
        },
        {
          "indexed": false,
          "name": "fund",
          "type": "uint256"
        }
      ],
      "name": "AirlineSubmittedFund",
      "type": "event",
      "signature": "0x5c8d63664d2fcb80124cc2336799bcf0be841fa53a6c6054e6e397222425d56f"
    },
    {
      "anonymous": false,
      "inputs": [
        {
          "indexed": false,
          "name": "state",
          "type": "uint8"
        },
        {
          "indexed": false,
          "name": "airlinesRegistered",
          "type": "uint256"
        }
      ],
      "name": "AirlineRegistration",
      "type": "event",
      "signature": "0x57e6365ca0d5671f421a334f2d64fd3396faf131dbabf85533feea8c9d46c164"
    },
    {
      "anonymous": false,
      "inputs": [
        {
          "indexed": false,
          "name": "airlineEmitionVoteAddress",
          "type": "address"
        },
        {
          "indexed": false,
          "name": "airlineVotedName",
          "type": "string"
        },
        {
          "indexed": false,
          "name": "airlineVotes",
          "type": "uint256"
        }
      ],
      "name": "MultipartyConsensusAirlineRegisterVote",
      "type": "event",
      "signature": "0x2e335ae65869eda5ae40677cbe2067ce4cebe5afea61b76cc260970402d72129"
    },
    {
      "anonymous": false,
      "inputs": [
        {
          "indexed": false,
          "name": "flightCode",
          "type": "bytes32"
        },
        {
          "indexed": false,
          "name": "airline",
          "type": "address"
        },
        {
          "indexed": false,
          "name": "status",
          "type": "uint8"
        }
      ],
      "name": "FlightRegistered",
      "type": "event",
      "signature": "0x414f963dad0c693d4fa936d56b7dfd7d2c2506e82a64efda601b3fb8d8ccaf20"
    },
    {
      "anonymous": false,
      "inputs": [
        {
          "indexed": false,
          "name": "passenger",
          "type": "address"
        },
        {
          "indexed": false,
          "name": "flightCode",
          "type": "bytes32"
        },
        {
          "indexed": false,
          "name": "status",
          "type": "uint8"
        }
      ],
      "name": "BoughtInsurance",
      "type": "event",
      "signature": "0xbc610a15be7a569b2502776fe8fbcb93efaae18f429b6fc3dd252c2cddeefc6d"
    },
    {
      "anonymous": false,
      "inputs": [
        {
          "indexed": false,
          "name": "passenger",
          "type": "address"
        },
        {
          "indexed": false,
          "name": "code",
          "type": "bytes32"
        },
        {
          "indexed": false,
          "name": "amount",
          "type": "uint256"
        },
        {
          "indexed": false,
          "name": "status",
          "type": "uint8"
        }
      ],
      "name": "PassengerWithdrawStatus",
      "type": "event",
      "signature": "0xb4e070083fb8566e5085b63c065ea8903bdf9632c56fd6a16d2c369eb1a947f6"
    },
    {
      "anonymous": false,
      "inputs": [
        {
          "indexed": false,
          "name": "airline",
          "type": "address"
        },
        {
          "indexed": false,
          "name": "flight",
          "type": "bytes32"
        },
        {
          "indexed": false,
          "name": "timestamp",
          "type": "uint256"
        },
        {
          "indexed": false,
          "name": "status",
          "type": "uint8"
        }
      ],
      "name": "FlightStatusInfo",
      "type": "event",
      "signature": "0x2c01e4c91c66eba4e28833dfd0d7db5b12558c3773d8fe5ab88cbaafb423056e"
    },
    {
      "anonymous": false,
      "inputs": [
        {
          "indexed": false,
          "name": "airline",
          "type": "address"
        },
        {
          "indexed": false,
          "name": "flight",
          "type": "bytes32"
        },
        {
          "indexed": false,
          "name": "timestamp",
          "type": "uint256"
        },
        {
          "indexed": false,
          "name": "status",
          "type": "uint8"
        }
      ],
      "name": "OracleReport",
      "type": "event",
      "signature": "0x06354a194cc1aa38c93009e264262f1db6b56a5e6dc2be2c7596a94b980c2f85"
    },
    {
      "anonymous": false,
      "inputs": [
        {
          "indexed": false,
          "name": "index",
          "type": "uint8"
        },
        {
          "indexed": false,
          "name": "airline",
          "type": "address"
        },
        {
          "indexed": false,
          "name": "flight",
          "type": "bytes32"
        },
        {
          "indexed": false,
          "name": "timestamp",
          "type": "uint256"
        }
      ],
      "name": "OracleRequest",
      "type": "event",
      "signature": "0x8b9eb22876717bbfb6bc02e9c693f640e54e5eb49e166ece6d6a70a6cc84a34f"
    },
    {
      "anonymous": false,
      "inputs": [
        {
          "indexed": true,
          "name": "oldOwner",
          "type": "address"
        },
        {
          "indexed": true,
          "name": "newOwner",
          "type": "address"
        }
      ],
      "name": "TransferOwnership",
      "type": "event",
      "signature": "0x5c486528ec3e3f0ea91181cff8116f02bfa350e03b8b6f12e00765adbb5af85c"
    },
    {
      "constant": true,
      "inputs": [],
      "name": "isOperational",
      "outputs": [
        {
          "name": "",
          "type": "bool"
        }
      ],
      "payable": false,
      "stateMutability": "pure",
      "type": "function",
      "signature": "0xcd905dff"
    },
    {
      "constant": true,
      "inputs": [],
      "name": "getBalanceAppContract",
      "outputs": [
        {
          "name": "",
          "type": "uint256"
        }
      ],
      "payable": false,
      "stateMutability": "view",
      "type": "function",
      "signature": "0xe02f83c7"
    },
    {
      "constant": false,
      "inputs": [],
      "name": "fetchDataContractConfiguration",
      "outputs": [
        {
          "name": "operational",
          "type": "bool"
        },
        {
          "name": "minAirlinesNumberMutipartyConsensus",
          "type": "uint8"
        },
        {
          "name": "minSubmitionFund",
          "type": "uint256"
        },
        {
          "name": "registeredAirlines",
          "type": "uint256"
        }
      ],
      "payable": false,
      "stateMutability": "nonpayable",
      "type": "function",
      "signature": "0xe7580f7b"
    },
    {
      "constant": false,
      "inputs": [
        {
          "name": "airlineAddressToRegister",
          "type": "address"
        },
        {
          "name": "airlineName",
          "type": "string"
        }
      ],
      "name": "registerAirline",
      "outputs": [],
      "payable": false,
      "stateMutability": "nonpayable",
      "type": "function",
      "signature": "0xee38a749"
    },
    {
      "constant": false,
      "inputs": [],
      "name": "submitFundAirline",
      "outputs": [],
      "payable": true,
      "stateMutability": "payable",
      "type": "function",
      "signature": "0x26687a44"
    },
    {
      "constant": false,
      "inputs": [
        {
          "name": "airlineAddressToBeRegister",
          "type": "address"
        },
        {
          "name": "vote",
          "type": "bool"
        }
      ],
      "name": "multipartyConsensusVote",
      "outputs": [],
      "payable": false,
      "stateMutability": "nonpayable",
      "type": "function",
      "signature": "0x4647a9a3"
    },
    {
      "constant": false,
      "inputs": [
        {
          "name": "code",
          "type": "bytes32"
        },
        {
          "name": "updatedTimestamp",
          "type": "uint256"
        },
        {
          "name": "departure",
          "type": "bytes32"
        },
        {
          "name": "arrival",
          "type": "bytes32"
        }
      ],
      "name": "registerFlight",
      "outputs": [],
      "payable": false,
      "stateMutability": "nonpayable",
      "type": "function",
      "signature": "0xe77d8da6"
    },
    {
      "constant": true,
      "inputs": [],
      "name": "fetchFlightsCodes",
      "outputs": [
        {
          "name": "",
          "type": "bytes32[]"
        }
      ],
      "payable": false,
      "stateMutability": "view",
      "type": "function",
      "signature": "0x360f74dc"
    },
    {
      "constant": true,
      "inputs": [
        {
          "name": "flightCode",
          "type": "bytes32"
        }
      ],
      "name": "fetchFlightInfoByCode",
      "outputs": [
        {
          "name": "",
          "type": "bytes32"
        },
        {
          "name": "",
          "type": "string"
        },
        {
          "name": "",
          "type": "bytes32"
        },
        {
          "name": "",
          "type": "bytes32"
        }
      ],
      "payable": false,
      "stateMutability": "view",
      "type": "function",
      "signature": "0x98b5151c"
    },
    {
      "constant": false,
      "inputs": [
        {
          "name": "flightCode",
          "type": "bytes32"
        }
      ],
      "name": "buyInsurance",
      "outputs": [],
      "payable": true,
      "stateMutability": "payable",
      "type": "function",
      "signature": "0xd79b71a2"
    },
    {
      "constant": true,
      "inputs": [],
      "name": "fetchActiveInsurancesKeysForPassenger",
      "outputs": [
        {
          "name": "",
          "type": "bytes32[]"
        }
      ],
      "payable": false,
      "stateMutability": "view",
      "type": "function",
      "signature": "0x3c086c24"
    },
    {
      "constant": true,
      "inputs": [
        {
          "name": "flightCode",
          "type": "bytes32"
        }
      ],
      "name": "fetchInsurancesInfoForPassengerAndCode",
      "outputs": [
        {
          "name": "",
          "type": "bytes32"
        },
        {
          "name": "",
          "type": "uint256"
        },
        {
          "name": "",
          "type": "uint8"
        }
      ],
      "payable": false,
      "stateMutability": "view",
      "type": "function",
      "signature": "0x72511d4d"
    },
    {
      "constant": false,
      "inputs": [
        {
          "name": "flightCode",
          "type": "bytes32"
        }
      ],
      "name": "passengerWithdraw",
      "outputs": [],
      "payable": true,
      "stateMutability": "payable",
      "type": "function",
      "signature": "0x691539d4"
    },
    {
      "constant": false,
      "inputs": [
        {
          "name": "airline",
          "type": "address"
        },
        {
          "name": "flight",
          "type": "bytes32"
        },
        {
          "name": "timestamp",
          "type": "uint256"
        }
      ],
      "name": "fetchFlightStatus",
      "outputs": [],
      "payable": false,
      "stateMutability": "nonpayable",
      "type": "function",
      "signature": "0xdd9548b5"
    },
    {
      "constant": false,
      "inputs": [],
      "name": "registerOracle",
      "outputs": [],
      "payable": true,
      "stateMutability": "payable",
      "type": "function",
      "signature": "0x339d2590"
    },
    {
      "constant": true,
      "inputs": [],
      "name": "getMyIndexes",
      "outputs": [
        {
          "name": "",
          "type": "uint8[3]"
        }
      ],
      "payable": false,
      "stateMutability": "view",
      "type": "function",
      "signature": "0x5f1cc0e6"
    },
    {
      "constant": false,
      "inputs": [
        {
          "name": "index",
          "type": "uint8"
        },
        {
          "name": "airline",
          "type": "address"
        },
        {
          "name": "flight",
          "type": "bytes32"
        },
        {
          "name": "timestamp",
          "type": "uint256"
        },
        {
          "name": "statusCode",
          "type": "uint8"
        }
      ],
      "name": "submitOracleResponse",
      "outputs": [],
      "payable": false,
      "stateMutability": "nonpayable",
      "type": "function",
      "signature": "0x96417767"
    }
  ],
  "bytecode": "0x60806040526001805460a060020a60ff021916905534801561002057600080fd5b506040516020806126758339810180604052602081101561004057600080fd5b505160008054600160a060020a0319163317808255604051600160a060020a039190911691907f5c486528ec3e3f0ea91181cff8116f02bfa350e03b8b6f12e00765adbb5af85c908290a360018054600160a060020a031916600160a060020a03929092169190911790556125bb806100ba6000396000f3fe6080604052600436106101395760003560e060020a900480638f32d59b116100af578063dd9548b511610073578063dd9548b51461048b578063e02f83c7146104ca578063e7580f7b146104df578063e77d8da61461051e578063ee38a7491461055a578063f2fde38b146105e757610139565b80638f32d59b14610327578063964177671461035057806398b5151c146103a2578063cd905dff14610459578063d79b71a21461046e57610139565b80635f1cc0e6116101015780635f1cc0e61461020557806364b4f75114610252578063691539d414610279578063715018a61461029657806372511d4d146102ab5780638da5cb5b146102f657610139565b806326687a441461013e578063339d259014610148578063360f74dc146101505780633c086c24146101b55780634647a9a3146101ca575b600080fd5b61014661061a565b005b610146610864565b34801561015c57600080fd5b5061016561091c565b60408051602080825283518183015283519192839290830191858101910280838360005b838110156101a1578181015183820152602001610189565b505050509050019250505060405180910390f35b3480156101c157600080fd5b50610165610a0b565b3480156101d657600080fd5b50610146600480360360408110156101ed57600080fd5b50600160a060020a0381351690602001351515610a6f565b34801561021157600080fd5b5061021a610d1b565b6040518082606080838360005b8381101561023f578181015183820152602001610227565b5050505090500191505060405180910390f35b34801561025e57600080fd5b50610267610dec565b60408051918252519081900360200190f35b6101466004803603602081101561028f57600080fd5b5035610df8565b3480156102a257600080fd5b5061014661110d565b3480156102b757600080fd5b506102d5600480360360208110156102ce57600080fd5b50356111b0565b60408051938452602084019290925260ff1682820152519081900360600190f35b34801561030257600080fd5b5061030b61126d565b60408051600160a060020a039092168252519081900360200190f35b34801561033357600080fd5b5061033c61127c565b604080519115158252519081900360200190f35b34801561035c57600080fd5b50610146600480360360a081101561037357600080fd5b5060ff8135811691600160a060020a03602082013516916040820135916060810135916080909101351661128d565b3480156103ae57600080fd5b506103cc600480360360208110156103c557600080fd5b5035611527565b6040518085815260200180602001848152602001838152602001828103825285818151815260200191508051906020019080838360005b8381101561041b578181015183820152602001610403565b50505050905090810190601f1680156104485780820380516001836020036101000a031916815260200191505b509550505050505060405180910390f35b34801561046557600080fd5b5061033c611647565b6101466004803603602081101561048457600080fd5b503561164c565b34801561049757600080fd5b50610146600480360360608110156104ae57600080fd5b50600160a060020a038135169060208101359060400135611754565b3480156104d657600080fd5b5061026761188f565b3480156104eb57600080fd5b506104f46118e3565b60408051941515855260ff9093166020850152838301919091526060830152519081900360800190f35b34801561052a57600080fd5b506101466004803603608081101561054157600080fd5b50803590602081013590604081013590606001356119d3565b34801561056657600080fd5b506101466004803603604081101561057d57600080fd5b600160a060020a0382351691908101906040810160208201356401000000008111156105a857600080fd5b8201836020820111156105ba57600080fd5b803590602001918460018302840111640100000000831117156105dc57600080fd5b509092509050611aef565b3480156105f357600080fd5b506101466004803603602081101561060a57600080fd5b5035600160a060020a0316611e1c565b600154604080517f5fe924260000000000000000000000000000000000000000000000000000000081529051600092600160a060020a031691635fe92426916004808301926020929190829003018186803b15801561067857600080fd5b505afa15801561068c573d6000803e3d6000fd5b505050506040513d60208110156106a257600080fd5b50519050348111156106e85760405160e560020a62461bcd0281526004018080602001828103825260328152602001806124e06032913960400191505060405180910390fd5b600154604080517f51c561700000000000000000000000000000000000000000000000000000000081523360048201529051600160a060020a03909216916351c561709160248082019260009290919082900301818387803b15801561074d57600080fd5b505af1158015610761573d6000803e3d6000fd5b50506040805133815234602082015281517f5c8d63664d2fcb80124cc2336799bcf0be841fa53a6c6054e6e397222425d56f9450908190039091019150a1600154604080517f5fe924260000000000000000000000000000000000000000000000000000000081529051600092600160a060020a031691635fe92426916004808301926020929190829003018186803b1580156107fd57600080fd5b505afa158015610811573d6000803e3d6000fd5b505050506040513d602081101561082757600080fd5b50516040519091503482900390339082156108fc029083906000818181858888f1935050505015801561085e573d6000803e3d6000fd5b50505050565b670de0b6b3a76400003410156108c4576040805160e560020a62461bcd02815260206004820152601c60248201527f526567697374726174696f6e2066656520697320726571756972656400000000604482015290519081900360640190fd5b6108cc6123a8565b6108d533611e74565b6040805180820182526001808252602080830185815233600090815260029092529390208251815460ff19169015151781559251939450909261085e9183019060036123c6565b600154604080517f76d581210000000000000000000000000000000000000000000000000000000081529051606092600160a060020a0316916376d58121916004808301926000929190829003018186803b15801561097a57600080fd5b505afa15801561098e573d6000803e3d6000fd5b505050506040513d6000823e601f3d908101601f1916820160405260208110156109b757600080fd5b8101908080516401000000008111156109cf57600080fd5b820160208101848111156109e257600080fd5b81518560208202830111640100000000821117156109ff57600080fd5b50909450505050505b90565b600154604080517fad403ba80000000000000000000000000000000000000000000000000000000081523360048201529051606092600160a060020a03169163ad403ba8916024808301926000929190829003018186803b15801561097a57600080fd5b600154604080517f2b01a725000000000000000000000000000000000000000000000000000000008152600160a060020a03858116600483015291516060936000938493911691632b01a725916024808201928692909190829003018186803b158015610adb57600080fd5b505afa158015610aef573d6000803e3d6000fd5b505050506040513d6000823e601f3d908101601f191682016040526060811015610b1857600080fd5b810190808051640100000000811115610b3057600080fd5b82016020810184811115610b4357600080fd5b8151640100000000811182820187101715610b5d57600080fd5b505060208201516040909201519096509094509250505060ff821615610bb75760405160e560020a62461bcd0281526004018080602001828103825260288152602001806125126028913960400191505060405180910390fd5b8315610c5957600154604080517f47f614fb000000000000000000000000000000000000000000000000000000008152336004820152600160a060020a038881166024830152915191909216916347f614fb91604480830192600092919082900301818387803b158015610c2a57600080fd5b505af1158015610c3e573d6000803e3d6000fd5b50505050610c56600182611f1a90919063ffffffff16565b90505b7f2e335ae65869eda5ae40677cbe2067ce4cebe5afea61b76cc260970402d721293384836040518084600160a060020a0316600160a060020a0316815260200180602001838152602001828103825284818151815260200191508051906020019080838360005b83811015610cd8578181015183820152602001610cc0565b50505050905090810190601f168015610d055780820380516001836020036101000a031916815260200191505b5094505050505060405180910390a15050505050565b610d236123a8565b3360009081526002602052604090205460ff161515610d8c576040805160e560020a62461bcd02815260206004820152601b60248201527f4e6f74207265676973746572656420617320616e206f7261636c650000000000604482015290519081900360640190fd5b3360009081526002602052604080822081516060810192839052926001909101916003918390855b825461010083900a900460ff16815260206001928301818104948501949093039092029101808411610db45790505050505050905090565b670de0b6b3a764000081565b600154604080517f912dbcfc00000000000000000000000000000000000000000000000000000000815233600482015260248101849052905160009283928392600160a060020a039092169163912dbcfc91604480820192606092909190829003018186803b158015610e6a57600080fd5b505afa158015610e7e573d6000803e3d6000fd5b505050506040513d6060811015610e9457600080fd5b50805160208201516040909201519094509092509050610ecc600a610ec084600f63ffffffff611f3316565b9063ffffffff611f5e16565b30311015610f0e5760405160e560020a62461bcd02815260040180806020018281038252603381526020018061253a6033913960400191505060405180910390fd5b600154604080517f345fd17c000000000000000000000000000000000000000000000000000000008152336004820152602481018790529051600092600160a060020a03169163345fd17c91604480830192602092919082900301818787803b158015610f7a57600080fd5b505af1158015610f8e573d6000803e3d6000fd5b505050506040513d6020811015610fa457600080fd5b505190508015610ff257336108fc610fc8600a610ec087600f63ffffffff611f3316565b6040518115909202916000818181858888f19350505050158015610ff0573d6000803e3d6000fd5b505b600154604080517f912dbcfc000000000000000000000000000000000000000000000000000000008152336004820152602481018890529051600160a060020a039092169163912dbcfc91604480820192606092909190829003018186803b15801561105d57600080fd5b505afa158015611071573d6000803e3d6000fd5b505050506040513d606081101561108757600080fd5b508051602082015160409092015190955090935091507fb4e070083fb8566e5085b63c065ea8903bdf9632c56fd6a16d2c369eb1a947f633856110d6600a610ec088600f63ffffffff611f3316565b60408051600160a060020a03909416845260208401929092528282015260ff85166060830152519081900360800190a15050505050565b61111561127c565b1515611159576040805160e560020a62461bcd0281526020600482015260176024820152600080516020612478833981519152604482015290519081900360640190fd5b60008054604051600160a060020a03909116907f5c486528ec3e3f0ea91181cff8116f02bfa350e03b8b6f12e00765adbb5af85c908390a36000805473ffffffffffffffffffffffffffffffffffffffff19169055565b60008080600154604080517f912dbcfc00000000000000000000000000000000000000000000000000000000815233600482015260248101879052905160009283928392600160a060020a039092169163912dbcfc91604480820192606092909190829003018186803b15801561122657600080fd5b505afa15801561123a573d6000803e3d6000fd5b505050506040513d606081101561125057600080fd5b508051602082015160409092015190999198509650945050505050565b600054600160a060020a031690565b600054600160a060020a0316331490565b3360009081526002602052604090206001015460ff868116911614806112cf57503360009081526002602052604090206001015460ff86811661010090920416145b806112f757503360009081526002602052604090206001015460ff8681166201000090920416145b15156113375760405160e560020a62461bcd02815260040180806020018281038252602381526020018061256d6023913960400191505060405180910390fd5b6040805160ff87811660f860020a02602080840191909152600160a060020a0388166c0100000000000000000000000002602184015260358301879052605580840187905284518085039091018152607590930184528251928101929092206000818152600390935292909120547401000000000000000000000000000000000000000090041615156113fe5760405160e560020a62461bcd0281526004018080602001828103825260488152602001806124986048913960600191505060405180910390fd5b600081815260036020908152604080832060ff8616808552600191820184528285208054928301815585529383902001805473ffffffffffffffffffffffffffffffffffffffff1916331790558051600160a060020a0389168152918201879052818101869052606082019290925290517f06354a194cc1aa38c93009e264262f1db6b56a5e6dc2be2c7596a94b980c2f859181900360800190a1600081815260036020908152604080832060ff8616845260010190915290205460021161151f5760408051600160a060020a03871681526020810186905280820185905260ff8416606082015290517f2c01e4c91c66eba4e28833dfd0d7db5b12558c3773d8fe5ab88cbaafb423056e9181900360800190a161151f8686868686611f82565b505050505050565b600060608180600154604080517f4fa3f21200000000000000000000000000000000000000000000000000000000815260048101889052905160009260609284928392600160a060020a031691634fa3f2129160248083019286929190829003018186803b15801561159857600080fd5b505afa1580156115ac573d6000803e3d6000fd5b505050506040513d6000823e601f3d908101601f1916820160405260808110156115d557600080fd5b8151602083018051919392830192916401000000008111156115f657600080fd5b8201602081018481111561160957600080fd5b815164010000000081118282018710171561162357600080fd5b50506020820151604090920151949c509a5098509196505050505050509193509193565b600190565b600154604080517f6958f6a900000000000000000000000000000000000000000000000000000000815233600482015234602482015260448101849052905160009283928392600160a060020a0390921691636958f6a99160648082019260609290919082900301818787803b1580156116c557600080fd5b505af11580156116d9573d6000803e3d6000fd5b505050506040513d60608110156116ef57600080fd5b5080516020808301516040938401518451600160a060020a038516815292830182905260ff811683860152935192965094509192507fbc610a15be7a569b2502776fe8fbcb93efaae18f429b6fc3dd252c2cddeefc6d9181900360600190a150505050565b600061175f3361220f565b6040805160f860020a60ff84169081026020808401919091526c01000000000000000000000000600160a060020a03808b169182026021860152603585018a905260558086018a9052865180870390910181526075860180885281519185019190912060b587018852338252600160959097019687526000818152600386528890209151825497511515740100000000000000000000000000000000000000000274ff0000000000000000000000000000000000000000199190941673ffffffffffffffffffffffffffffffffffffffff199098169790971796909616919091179055845192835290820152808301879052606081018690529151929350917f8b9eb22876717bbfb6bc02e9c693f640e54e5eb49e166ece6d6a70a6cc84a34f9181900360800190a15050505050565b600061189961127c565b15156118dd576040805160e560020a62461bcd0281526020600482015260176024820152600080516020612478833981519152604482015290519081900360640190fd5b50303190565b6000806000806118f161127c565b1515611935576040805160e560020a62461bcd0281526020600482015260176024820152600080516020612478833981519152604482015290519081900360640190fd5b600160009054906101000a9004600160a060020a0316600160a060020a031663e7580f7b6040518163ffffffff1660e060020a028152600401608060405180830381600087803b15801561198857600080fd5b505af115801561199c573d6000803e3d6000fd5b505050506040513d60808110156119b257600080fd5b50805160208201516040830151606090930151919790965091945092509050565b600154604080517fba805d4700000000000000000000000000000000000000000000000000000000815260048101879052602481018690523360448201526064810185905260848101849052905160009283928392600160a060020a039092169163ba805d479160a48082019260609290919082900301818787803b158015611a5b57600080fd5b505af1158015611a6f573d6000803e3d6000fd5b505050506040513d6060811015611a8557600080fd5b5080516020808301516040938401518451848152600160a060020a0383169381019390935260ff811683860152935192965094509192507f414f963dad0c693d4fa936d56b7dfd7d2c2506e82a64efda601b3fb8d8ccaf209181900360600190a150505050505050565b600080600160009054906101000a9004600160a060020a0316600160a060020a031663e4bfff6e6040518163ffffffff1660e060020a02815260040160206040518083038186803b158015611b4357600080fd5b505afa158015611b57573d6000803e3d6000fd5b505050506040513d6020811015611b6d57600080fd5b5051600154604080517fc23bcf09000000000000000000000000000000000000000000000000000000008152905160ff90931692600160a060020a039092169163c23bcf0991600480820192602092909190829003018186803b158015611bd357600080fd5b505afa158015611be7573d6000803e3d6000fd5b505050506040513d6020811015611bfd57600080fd5b50511015611cef576001546040517f9ffd0c340000000000000000000000000000000000000000000000000000000081523360048201818152600160a060020a038981166024850152600060648501819052608060448601908152608486018a90529190951694639ffd0c34948b938b938b939260a401858580828437600081840152601f19601f82011690508083019250505096505050505050506040805180830381600087803b158015611cb257600080fd5b505af1158015611cc6573d6000803e3d6000fd5b505050506040513d6040811015611cdc57600080fd5b5080516020909101519092509050611dd7565b600180546040517f9ffd0c340000000000000000000000000000000000000000000000000000000081523360048201818152600160a060020a038a8116602485015260648401869052608060448501908152608485018a9052941694639ffd0c349492938b938b938b939290919060a401858580828437600081840152601f19601f82011690508083019250505096505050505050506040805180830381600087803b158015611d9e57600080fd5b505af1158015611db2573d6000803e3d6000fd5b505050506040513d6040811015611dc857600080fd5b50805160209091015190925090505b6040805160ff841681526020810183905281517f57e6365ca0d5671f421a334f2d64fd3396faf131dbabf85533feea8c9d46c164929181900390910190a15050505050565b611e2461127c565b1515611e68576040805160e560020a62461bcd0281526020600482015260176024820152600080516020612478833981519152604482015290519081900360640190fd5b611e71816122e0565b50565b611e7c6123a8565b611e846123a8565b611e8d8361220f565b60ff1680825260208201525b8051602082015160ff90811691161415611ec357611eb68361220f565b60ff166020820152611e99565b602081015160ff1660408201525b8051604082015160ff90811691161480611ef957506020810151604082015160ff9081169116145b15611f1457611f078361220f565b60ff166040820152611ed1565b92915050565b600082820183811015611f2c57600080fd5b9392505050565b6000821515611f4457506000611f14565b828202828482811515611f5357fe5b0414611f2c57600080fd5b6000811515611f6c57600080fd5b60008284811515611f7957fe5b04949350505050565b6040805160ff87811660f860020a02602080840191909152600160a060020a0388166c0100000000000000000000000002602184015260358301879052605580840187905284518085039091018152607590930184528251928101929092206000818152600390935292909120805474ff00000000000000000000000000000000000000001916905582161515612059576000818152600360205260409020805474ff000000000000000000000000000000000000000019167401000000000000000000000000000000000000000017905561151f565b600154604080517f53e0b36f0000000000000000000000000000000000000000000000000000000081529051606092600160a060020a0316916353e0b36f916004808301926000929190829003018186803b1580156120b757600080fd5b505afa1580156120cb573d6000803e3d6000fd5b505050506040513d6000823e601f3d908101601f1916820160405260208110156120f457600080fd5b81019080805164010000000081111561210c57600080fd5b8201602081018481111561211f57600080fd5b815185602082028301116401000000008211171561213c57600080fd5b50909450600093505050505b8151811015612205576001548251600160a060020a0390911690633ea1097d9084908490811061217457fe5b602090810290910101516040805160e060020a63ffffffff8516028152600160a060020a039092166004830152602482018a905260ff8816604483015251606480830192600092919082900301818387803b1580156121d257600080fd5b505af11580156121e6573d6000803e3d6000fd5b505050506121fe600182611f1a90919063ffffffff16565b9050612148565b5050505050505050565b6001805474ff000000000000000000000000000000000000000019811660ff7401000000000000000000000000000000000000000092839004811680850182168402929092179384905560408051439390930340602080850191909152600160a060020a0387166c0100000000000000000000000002848301528151808503603401815260549094019091528251920191909120600093600a93918490069260fa92909104161115611f2c576001805474ff0000000000000000000000000000000000000000191690559392505050565b600160a060020a0381161515612340576040805160e560020a62461bcd02815260206004820152601060248201527f4e65772061646472657373206e756c6c00000000000000000000000000000000604482015290519081900360640190fd5b60008054604051600160a060020a03808516939216917f5c486528ec3e3f0ea91181cff8116f02bfa350e03b8b6f12e00765adbb5af85c91a36000805473ffffffffffffffffffffffffffffffffffffffff1916600160a060020a0392909216919091179055565b60405180606001604052806003906020820280388339509192915050565b6001830191839082156124495791602002820160005b8382111561241a57835183826101000a81548160ff021916908360ff16021790555092602001926001016020816000010492830192600103026123dc565b80156124475782816101000a81549060ff021916905560010160208160000104928301926001030261241a565b505b50612455929150612459565b5090565b610a0891905b8082111561245557805460ff1916815560010161245f56fe43616c6c6572206973206e6f7420746865206f776e6572000000000000000000466c69676874206f722074696d657374616d7020646f206e6f74206d61746368206f7261636c652072657175657374204f52207265706f6e736520696e2070726f63657373696e675061696420616d6f756e74206e6f742073756666696369656e7420746f20726567697374657220746865206169726c696e654169726c696e65206e6f7420696e2070726f6365737320746f206265207265736769737465726564436f6e74726163742066756e6473206e6f7420656e6f75676820746f2077697468647261772074686520696e737572616e6365496e64657820646f6573206e6f74206d61746368206f7261636c652072657175657374a165627a7a72305820b9ef083825093980bbdae107ff8c170a1b1d604b573bf18adbe9761bf02cc48d0029",
  "source": "pragma solidity ^0.5.0;\n\n// It's important to avoid vulnerabilities due to numeric overflow bugs\n// OpenZeppelin's SafeMath library, when used correctly, protects agains such bugs\n// More info: https://www.nccgroup.trust/us/about-us/newsroom-and-events/blog/2018/november/smart-contract-insecurity-bad-arithmetic/\n\nimport \"../core/Ownable.sol\";\nimport \"../../node_modules/openzeppelin-solidity/contracts/math/SafeMath.sol\";\n\n/************************************************** */\n/* FlightSurety Smart Contract                      */\n/************************************************** */\ncontract FlightSuretyApp is Ownable {\n    using SafeMath for uint256; // Allow SafeMath functions to be called for all uint256 types (similar to \"prototype\" in Javascript)\n    using SafeMath for uint8; // Allow SafeMath functions to be called for all uint256 types (similar to \"prototype\" in Javascript)\n\n    /********************************************************************************************/\n    /*                                       DATA VARIABLES                                     */\n    /********************************************************************************************/\n\n    // Flight status codees\n    uint8 private constant STATUS_CODE_UNKNOWN = 0;\n    uint8 private constant STATUS_CODE_ON_TIME = 10;\n    uint8 private constant STATUS_CODE_LATE_AIRLINE = 20;\n    uint8 private constant STATUS_CODE_LATE_WEATHER = 30;\n    uint8 private constant STATUS_CODE_LATE_TECHNICAL = 40;\n    uint8 private constant STATUS_CODE_LATE_OTHER = 50;\n\n    // FlightSuretyData contract\n    FlightSuretyData flightSuretyData;\n\n    //address private contractOwner;          // Account used to deploy contract\n\n    /*struct Flight {\n        bool isRegistered;\n        bytes32 code;\n        uint8 statusCode;\n        uint256 updatedTimestamp;        \n        address airline;\n        bytes32 departure;\n        bytes32 arrival;\n    }*/\n    //mapping(bytes32 => Flight) private flights;\n\n    /********************************************************************************************/\n    /*                                       EVENT DEFINITIONS                                  */\n    /********************************************************************************************/\n\n    event AirlineSubmittedFund (address airlineAdress, uint256 fund);\n    event AirlineRegistration (uint8 state, uint256 airlinesRegistered);\n    event MultipartyConsensusAirlineRegisterVote (address airlineEmitionVoteAddress, string airlineVotedName, uint256 airlineVotes);\n    event FlightRegistered(bytes32 flightCode, address airline, uint8 status);\n    event BoughtInsurance(address passenger, bytes32 flightCode, uint8 status);\n    event PassengerWithdrawStatus(address passenger,bytes32 code, uint256 amount, uint8 status);\n    /********************************************************************************************/\n    /*                                       FUNCTION MODIFIERS                                 */\n    /********************************************************************************************/\n\n    // Modifiers help avoid duplication of code. They are typically used to validate something\n    // before a function is allowed to be executed.\n\n    /**\n    * @dev Modifier that requires the \"operational\" boolean variable to be \"true\"\n    *      This is used on all state changing functions to pause the contract in \n    *      the event there is an issue that needs to be fixed\n    */\n    modifier requireIsOperational() \n    {\n         // Modify to call data contract's status\n        require(true, \"Contract is currently not operational\");  \n        _;  // All modifiers require an \"_\" which indicates where the function body will be added\n    }\n\n    /**\n    * @dev Modifier that requires enough fund to an airline to start operation in contract\n    */\n    modifier airlinePaidEnoughFundToOperate()\n    {\n        uint256 _minFound = flightSuretyData.getMinSubmitionFund();\n        require(msg.value >= _minFound, \"Paid amount not sufficient to register the airline\"); \n        _;\n    }\n\n    /**\n    * @dev Modifier that requires enough fund to an airline to start operation in contract\n    */\n    modifier checkAirlineFundValue() {\n        _;\n        uint256 _minFound = flightSuretyData.getMinSubmitionFund();\n        uint amountToReturn = msg.value - _minFound;\n        msg.sender.transfer(amountToReturn);\n    }\n\n    /**\n    * @dev Modifier that requires enough fund to an airline to start operation in contract\n    */\n    modifier requireEnoughFundsInContract(address passenger, bytes32 flightCode)\n    {\n        (bytes32 code, uint256 amount, uint8 status) = flightSuretyData.fetchInsuranceInfoByPassengerAndCode(msg.sender, flightCode);\n        require(address(this).balance >= amount.mul(15).div(10), \"Contract funds not enough to withdraw the insurance\"); \n        _;\n    }\n\n    /********************************************************************************************/\n    /*                                       CONSTRUCTOR                                        */\n    /********************************************************************************************/\n\n    /**\n    * @dev Contract constructor\n    *\n    */\n    constructor\n                                (\n                                    address flightSuretyDataContract\n                                ) \n                                public \n    {\n        flightSuretyData = FlightSuretyData(flightSuretyDataContract);\n    }\n\n    /********************************************************************************************/\n    /*                                       UTILITY FUNCTIONS                                  */\n    /********************************************************************************************/\n\n    function isOperational() \n        public \n        pure \n        returns(bool) \n    {\n        return true;  // Modify to call data contract's status\n    }\n\n    function getBalanceAppContract ()\n        onlyOwner()\n        external view\n        returns(uint256)\n    {\n        return address(this).balance;\n    }\n\n    function fetchDataContractConfiguration()\n        onlyOwner()\n        requireIsOperational()\n        external\n        returns(bool operational, uint8 minAirlinesNumberMutipartyConsensus, uint256 minSubmitionFund, uint256 registeredAirlines) {\n            (operational, minAirlinesNumberMutipartyConsensus, minSubmitionFund, registeredAirlines) = flightSuretyData.fetchDataContractConfiguration();\n            return (\n                operational,\n                minAirlinesNumberMutipartyConsensus,\n                minSubmitionFund,\n                registeredAirlines\n            );\n    }\n\n    /********************************************************************************************/\n    /*                                     SMART CONTRACT FUNCTIONS                             */\n    /********************************************************************************************/\n\n  \n   /**\n    * @dev Add an airline to the registration queue\n    *\n    */   \n    function registerAirline\n    (\n        address airlineAddressToRegister,\n        string calldata airlineName\n    )\n        external\n        requireIsOperational()\n    {\n        uint8 state;\n        uint256 airlinesRegistered;\n        if (flightSuretyData.getRegisteredAirlines() < flightSuretyData.getMinAirlinesNumberMutipartyConsensus()) {\n            (state, airlinesRegistered) = flightSuretyData.registerAirline(msg.sender, airlineAddressToRegister, airlineName, false);\n        } else {\n            (state, airlinesRegistered) = flightSuretyData.registerAirline(msg.sender, airlineAddressToRegister, airlineName, true);\n        }\n        emit AirlineRegistration(state, airlinesRegistered);\n    }\n\n    /**\n    * @dev Add an airline to the registration queue\n    *\n    */   \n    function submitFundAirline()\n        requireIsOperational()\n        airlinePaidEnoughFundToOperate()\n        checkAirlineFundValue()\n        external payable\n    {\n        flightSuretyData.updateFundFieldAirline(msg.sender);\n        emit AirlineSubmittedFund(msg.sender, msg.value);\n    }\n\n    /**\n    * @dev Vote to register a new airline for multiparty consensus\n    *\n    */   \n    function multipartyConsensusVote\n    (\n        address airlineAddressToBeRegister, \n        bool vote\n    )\n        external\n        requireIsOperational()\n    {\n        // Fetch airline data by address\n        (string memory _airlineName, uint8 _airlineState, uint256 _airlineVotes) = flightSuretyData.fetchAirlineByAddress(airlineAddressToBeRegister);\n        // Check that the airline is in registration process state\n        require(_airlineState == 0, \"Airline not in process to be resgistered\");\n        if (vote) {\n            flightSuretyData.voteToRegisterAirline(msg.sender, airlineAddressToBeRegister);\n            _airlineVotes = _airlineVotes.add(1);\n        }\n        // Emit the proper event\n        emit MultipartyConsensusAirlineRegisterVote (msg.sender, _airlineName, _airlineVotes);\n    }\n\n\n   /**\n    * @dev Register a future flight for insuring.\n    *\n    */  \n    function registerFlight\n    (\n        bytes32 code,\n        uint256 updatedTimestamp,\n        bytes32 departure,\n        bytes32 arrival\n    )\n        external\n        requireIsOperational()\n    {\n        (bytes32 flightCode, address airline, uint8 status) = flightSuretyData.registerFlight(code, updatedTimestamp, msg.sender, departure, arrival);\n        emit FlightRegistered(flightCode, airline, status);\n    }\n\n    /**\n    * @dev Fetch flights codes.\n    *\n    */  \n    function fetchFlightsCodes()\n        external\n        view\n        requireIsOperational()\n        returns(bytes32[] memory)\n    {\n        return flightSuretyData.fetchRegisteredFlightsCodes();\n    }\n\n    /**\n    * @dev Fetch flight info by code.\n    *\n    */  \n    function fetchFlightInfoByCode\n    (\n        bytes32 flightCode\n    )\n        external\n        view\n        requireIsOperational()\n        returns(bytes32, string memory, bytes32, bytes32)\n    {\n        (bytes32 code, string memory airlineName, bytes32 departure, bytes32 arrival) = flightSuretyData.fetchRegisteredFlightInfoByCode(flightCode);\n        return (\n            code,\n            airlineName,\n            departure,\n            arrival\n        );\n    }\n\n    /**\n    * @dev Register a future flight for insuring.\n    *\n    */\n    function buyInsurance\n    (\n        bytes32 flightCode\n    )\n        external\n        payable\n        requireIsOperational()\n    {\n        (address returnPassenger, bytes32 returnFlightCode, uint8 returnState) = flightSuretyData.buyInsurance(msg.sender, msg.value, flightCode);\n        emit BoughtInsurance(returnPassenger, returnFlightCode, returnState);\n    }\n\n    /**\n    * @dev Fetch insurances codes for a passenger.\n    *\n    */  \n    function fetchActiveInsurancesKeysForPassenger()\n        external\n        view\n        requireIsOperational()\n        returns(bytes32[] memory)\n    {\n        return flightSuretyData.fetchActiveInsurancesKeysByPassenger(msg.sender);\n    }\n\n    /**\n    * @dev Fetch insurances info for a passenger and code.\n    *\n    */  \n    function fetchInsurancesInfoForPassengerAndCode\n    (\n        bytes32 flightCode\n    )\n        external\n        view\n        requireIsOperational()\n        returns(bytes32, uint256, uint8)\n    {\n        (bytes32 code, uint256 amount, uint8 status) = flightSuretyData.fetchInsuranceInfoByPassengerAndCode(msg.sender, flightCode);\n        return (\n            code,\n            amount,\n            status\n        );\n    }\n    \n   /**\n    * @dev Called after oracle has updated flight status\n    *\n    */  \n    function processFlightStatus\n    (\n        uint8 index,\n        address airline,\n        bytes32 flight,\n        uint256 timestamp,\n        uint8 statusCode\n    )\n        internal\n        requireIsOperational()\n    {\n        bytes32 key = keccak256(abi.encodePacked(index, airline, flight, timestamp));\n        // Close the response in order to handel only once\n        oracleResponses[key].isOpen = false;\n        if (statusCode == STATUS_CODE_UNKNOWN) {\n            // Reopen again the request for response\n            oracleResponses[key].isOpen = true;\n        } else {\n            // Fetch passengers array\n            address[] memory passengersList = flightSuretyData.fetchRegisteredPassengers();\n            for (uint256 paxIndex = 0; paxIndex < passengersList.length; paxIndex = paxIndex.add(1)) {\n                flightSuretyData.creditInsurees (passengersList[paxIndex], flight, statusCode);\n            }\n        }\n    }\n\n    /**\n    * @dev Passenger can withdraw any funds owed to them as a result of receiving credit for insurance payout\n    *\n    */  \n    function passengerWithdraw\n    (\n        bytes32 flightCode\n    )\n        public\n        payable\n        requireIsOperational()\n    {\n        bytes32 code;\n        uint256 amount;\n        uint8 status;\n        // Fetch amount paid for the insurance to calculate the withdraw payment amount\n        (code, amount, status) = flightSuretyData.fetchInsuranceInfoByPassengerAndCode(msg.sender, flightCode);\n        // Check if contract balance has enough ethers\n        require(address(this).balance >= amount.mul(15).div(10), \"Contract funds not enough to withdraw the insurance\");\n        // Update the insurance status before to transfer withdraw to passenger\n        bool returnUpdateStatus = flightSuretyData.paymentWithdraw(msg.sender, flightCode);\n        if(returnUpdateStatus) {\n            msg.sender.transfer(amount.mul(15).div(10));\n        }\n        // Fetch current status for insurance after withdraw\n        (code, amount, status) = flightSuretyData.fetchInsuranceInfoByPassengerAndCode(msg.sender, flightCode);\n        // Emit proper event\n        emit PassengerWithdrawStatus(msg.sender, code, amount.mul(15).div(10), status);\n    }\n\n\n    // Generate a request for oracles to fetch flight information\n    function fetchFlightStatus\n    (\n        address airline,\n        bytes32 flight,\n        uint256 timestamp                            \n    )\n        external\n    {\n        uint8 index = getRandomIndex(msg.sender);\n\n        // Generate a unique key for storing the request\n        bytes32 key = keccak256(abi.encodePacked(index, airline, flight, timestamp));\n        oracleResponses[key] = ResponseInfo({\n                                                requester: msg.sender,\n                                                isOpen: true\n                                            });\n\n        emit OracleRequest(index, airline, flight, timestamp);\n    } \n\n\n// region ORACLE MANAGEMENT\n\n    // Incremented to add pseudo-randomness at various points\n    uint8 private nonce = 0;    \n\n    // Fee to be paid when registering oracle\n    uint256 public constant REGISTRATION_FEE = 1 ether;\n\n    // Number of oracles that must respond for valid status\n    uint256 private constant MIN_RESPONSES = 2;\n\n\n    struct Oracle {\n        bool isRegistered;\n        uint8[3] indexes;        \n    }\n\n    // Track all registered oracles\n    mapping(address => Oracle) private oracles;\n\n    // Model for responses from oracles\n    struct ResponseInfo {\n        address requester;                              // Account that requested status\n        bool isOpen;                                    // If open, oracle responses are accepted\n        mapping(uint8 => address[]) responses;          // Mapping key is the status code reported\n                                                        // This lets us group responses and identify\n                                                        // the response that majority of the oracles\n    }\n\n    // Track all oracle responses\n    // Key = hash(index, flight, timestamp)\n    mapping(bytes32 => ResponseInfo) private oracleResponses;\n\n    // Event fired each time an oracle submits a response\n    event FlightStatusInfo(address airline, bytes32 flight, uint256 timestamp, uint8 status);\n\n    event OracleReport(address airline, bytes32 flight, uint256 timestamp, uint8 status);\n\n    // Event fired when flight status request is submitted\n    // Oracles track this and if they have a matching index\n    // they fetch data and submit a response\n    event OracleRequest(uint8 index, address airline, bytes32 flight, uint256 timestamp);\n\n\n    // Register an oracle with the contract\n    function registerOracle\n                            (\n                            )\n                            external\n                            payable\n    {\n        // Require registration fee\n        require(msg.value >= REGISTRATION_FEE, \"Registration fee is required\");\n\n        uint8[3] memory indexes = generateIndexes(msg.sender);\n\n        oracles[msg.sender] = Oracle({\n                                        isRegistered: true,\n                                        indexes: indexes\n                                    });\n    }\n\n    function getMyIndexes\n                            (\n                            )\n                            view\n                            external\n                            returns(uint8[3] memory)\n    {\n        require(oracles[msg.sender].isRegistered, \"Not registered as an oracle\");\n\n        return oracles[msg.sender].indexes;\n    }\n\n\n\n\n    // Called by oracle when a response is available to an outstanding request\n    // For the response to be accepted, there must be a pending request that is open\n    // and matches one of the three Indexes randomly assigned to the oracle at the\n    // time of registration (i.e. uninvited oracles are not welcome)\n    function submitOracleResponse\n                        (\n                            uint8 index,\n                            address airline,\n                            bytes32 flight,\n                            uint256 timestamp,\n                            uint8 statusCode\n                        )\n                        external\n    {\n        require((oracles[msg.sender].indexes[0] == index) || (oracles[msg.sender].indexes[1] == index) || (oracles[msg.sender].indexes[2] == index), \"Index does not match oracle request\");\n\n\n        bytes32 key = keccak256(abi.encodePacked(index, airline, flight, timestamp)); \n        require(oracleResponses[key].isOpen, \"Flight or timestamp do not match oracle request OR reponse in processing\");\n\n        oracleResponses[key].responses[statusCode].push(msg.sender);\n\n        // Information isn't considered verified until at least MIN_RESPONSES\n        // oracles respond with the *** same *** information\n        emit OracleReport(airline, flight, timestamp, statusCode);\n        if (oracleResponses[key].responses[statusCode].length >= MIN_RESPONSES) {\n\n            emit FlightStatusInfo(airline, flight, timestamp, statusCode);\n\n            // Handle flight status as appropriate\n            processFlightStatus(index, airline, flight, timestamp, statusCode);\n        }\n    }\n\n\n    function getFlightKey\n                        (\n                            address airline,\n                            string memory flight,\n                            uint256 timestamp\n                        )\n                        pure\n                        internal\n                        returns(bytes32) \n    {\n        return keccak256(abi.encodePacked(airline, flight, timestamp));\n    }\n\n    // Returns array of three non-duplicating integers from 0-9\n    function generateIndexes\n                            (                       \n                                address account         \n                            )\n                            internal\n                            returns(uint8[3] memory)\n    {\n        uint8[3] memory indexes;\n        indexes[0] = getRandomIndex(account);\n        \n        indexes[1] = indexes[0];\n        while(indexes[1] == indexes[0]) {\n            indexes[1] = getRandomIndex(account);\n        }\n\n        indexes[2] = indexes[1];\n        while((indexes[2] == indexes[0]) || (indexes[2] == indexes[1])) {\n            indexes[2] = getRandomIndex(account);\n        }\n\n        return indexes;\n    }\n\n    // Returns array of three non-duplicating integers from 0-9\n    function getRandomIndex\n                            (\n                                address account\n                            )\n                            internal\n                            returns (uint8)\n    {\n        uint8 maxValue = 10;\n\n        // Pseudo random number...the incrementing nonce adds variation\n        uint8 random = uint8(uint256(keccak256(abi.encodePacked(blockhash(block.number - nonce++), account))) % maxValue);\n\n        if (nonce > 250) {\n            nonce = 0;  // Can only fetch blockhashes for last 256 blocks so we adapt\n        }\n\n        return random;\n    }\n\n// endregion\n\n}\n\n// ABI FlightSuretyData contract\ncontract FlightSuretyData {\n    function registerAirline (address, address, string calldata, bool) external returns (uint8, uint256);\n    function fetchDataContractConfiguration () external returns (bool, uint8, uint256, uint256);\n    function isOperational () public view returns(bool);\n    function getMinAirlinesNumberMutipartyConsensus () external view returns (uint8);\n    function getMinSubmitionFund () external view returns (uint256);\n    function getRegisteredAirlines () external view returns (uint256);\n    function updateFundFieldAirline (address) external;\n    function fetchAirlineByAddress (address airlineAddress) external view returns (string memory, uint8, uint256);\n    function voteToRegisterAirline (address airlineAddressOrigin, address airlineAddressToBeVoted) external;\n    function registerFlight (bytes32 code, uint256 updatedTimestamp, address airline, bytes32, bytes32) external returns (bytes32, address, uint8);\n    function buyInsurance (address passenger, uint256 amountPaid, bytes32 flightCode) external payable returns (address, bytes32, uint8);\n    function fetchRegisteredFlightsCodes () external view returns(bytes32[] memory);\n    function fetchRegisteredFlightInfoByCode (bytes32 flightCode) external view returns (bytes32, string memory, bytes32, bytes32);\n    function fetchActiveInsurancesKeysByPassenger (address passenger) external view returns(bytes32[] memory);\n    function fetchRegisteredPassengers () external view returns(address[] memory);\n    function fetchInsuranceInfoByPassengerAndCode (address passenger, bytes32 flightCode) external view returns(bytes32, uint256, uint8);\n    function creditInsurees (address passenger, bytes32 flightCodeInsurance, uint8 flightStatus) external;\n    function paymentWithdraw (address passenger, bytes32 flightCodeInsuranceCode) external returns(bool);\n}",
  "sourcePath": "/Users/juansenoret/Documents/trainings/blockchain/Udacity_nanodegree_blockchain/chapters/chapter_8/code/flightsurety-project-code/contracts/base/FlightSuretyApp.sol",
  "compiler": {
    "name": "solc",
    "version": "0.5.5+commit.47a71e8f.Emscripten.clang"
  },
  "schemaVersion": "3.0.1",
  "updatedAt": "2019-03-11T17:01:09.612Z",
  "devdoc": {
    "methods": {
      "buyInsurance(bytes32)": {
        "details": "Register a future flight for insuring.    "
      },
      "constructor": {
        "details": "Contract constructor    "
      },
      "fetchActiveInsurancesKeysForPassenger()": {
        "details": "Fetch insurances codes for a passenger.    "
      },
      "fetchFlightInfoByCode(bytes32)": {
        "details": "Fetch flight info by code.    "
      },
      "fetchFlightsCodes()": {
        "details": "Fetch flights codes.    "
      },
      "fetchInsurancesInfoForPassengerAndCode(bytes32)": {
        "details": "Fetch insurances info for a passenger and code.    "
      },
      "multipartyConsensusVote(address,bool)": {
        "details": "Vote to register a new airline for multiparty consensus    "
      },
      "passengerWithdraw(bytes32)": {
        "details": "Passenger can withdraw any funds owed to them as a result of receiving credit for insurance payout    "
      },
      "registerAirline(address,string)": {
        "details": "Add an airline to the registration queue    "
      },
      "registerFlight(bytes32,uint256,bytes32,bytes32)": {
        "details": "Register a future flight for insuring.    "
      },
      "submitFundAirline()": {
        "details": "Add an airline to the registration queue    "
      }
    }
  },
  "userdoc": {
    "methods": {
      "isOperational()": {
        "notice": "*****************************************************************************************"
      }
    },
    "notice": "************************************************ "
  }
}